{
  "_format": "hh-sol-artifact-1",
  "contractName": "TaskManager",
  "sourceName": "contracts/TaskManager.sol",
  "abi": [
    {
      "anonymous": false,
      "inputs": [
        {
          "indexed": false,
          "internalType": "uint256",
          "name": "id",
          "type": "uint256"
        },
        {
          "indexed": false,
          "internalType": "string",
          "name": "name",
          "type": "string"
        },
        {
          "indexed": false,
          "internalType": "enum TaskManager.Status",
          "name": "status",
          "type": "uint8"
        },
        {
          "indexed": false,
          "internalType": "address",
          "name": "createdBy",
          "type": "address"
        }
      ],
      "name": "TaskCreated",
      "type": "event"
    },
    {
      "anonymous": false,
      "inputs": [
        {
          "indexed": false,
          "internalType": "uint256",
          "name": "id",
          "type": "uint256"
        },
        {
          "indexed": false,
          "internalType": "enum TaskManager.Status",
          "name": "newStatus",
          "type": "uint8"
        }
      ],
      "name": "TaskStatusUpdated",
      "type": "event"
    },
    {
      "inputs": [
        {
          "internalType": "string",
          "name": "_name",
          "type": "string"
        },
        {
          "internalType": "string",
          "name": "_description",
          "type": "string"
        }
      ],
      "name": "createTask",
      "outputs": [],
      "stateMutability": "nonpayable",
      "type": "function"
    },
    {
      "inputs": [
        {
          "internalType": "uint256",
          "name": "_taskId",
          "type": "uint256"
        }
      ],
      "name": "getTask",
      "outputs": [
        {
          "internalType": "string",
          "name": "",
          "type": "string"
        },
        {
          "internalType": "string",
          "name": "",
          "type": "string"
        },
        {
          "internalType": "enum TaskManager.Status",
          "name": "",
          "type": "uint8"
        },
        {
          "internalType": "address",
          "name": "",
          "type": "address"
        }
      ],
      "stateMutability": "view",
      "type": "function"
    },
    {
      "inputs": [],
      "name": "nextTaskId",
      "outputs": [
        {
          "internalType": "uint256",
          "name": "",
          "type": "uint256"
        }
      ],
      "stateMutability": "view",
      "type": "function"
    },
    {
      "inputs": [
        {
          "internalType": "uint256",
          "name": "",
          "type": "uint256"
        }
      ],
      "name": "tasks",
      "outputs": [
        {
          "internalType": "uint256",
          "name": "id",
          "type": "uint256"
        },
        {
          "internalType": "string",
          "name": "name",
          "type": "string"
        },
        {
          "internalType": "string",
          "name": "description",
          "type": "string"
        },
        {
          "internalType": "enum TaskManager.Status",
          "name": "status",
          "type": "uint8"
        },
        {
          "internalType": "address",
          "name": "createdBy",
          "type": "address"
        }
      ],
      "stateMutability": "view",
      "type": "function"
    },
    {
      "inputs": [
        {
          "internalType": "uint256",
          "name": "_taskId",
          "type": "uint256"
        },
        {
          "internalType": "enum TaskManager.Status",
          "name": "_status",
          "type": "uint8"
        }
      ],
      "name": "updateTaskStatus",
      "outputs": [],
      "stateMutability": "nonpayable",
      "type": "function"
    }
  ],
  "bytecode": "0x6080604052348015600f57600080fd5b50610fda8061001f6000396000f3fe608060405234801561001057600080fd5b50600436106100575760003560e01c80631d65e77e1461005c578063292a45851461008f5780638d977672146100ab578063ab9b6811146100df578063fdc3d8d7146100fb575b600080fd5b610076600480360381019061007191906106e3565b610119565b6040516100869493929190610858565b60405180910390f35b6100a960048036038101906100a491906109e0565b61029c565b005b6100c560048036038101906100c091906106e3565b61040e565b6040516100d6959493929190610a67565b60405180910390f35b6100f960048036038101906100f49190610aed565b610581565b005b610103610693565b6040516101109190610b2d565b60405180910390f35b6060806000806000806000878152602001908152602001600020905080600101816002018260030160009054906101000a900460ff168360030160019054906101000a900473ffffffffffffffffffffffffffffffffffffffff1683805461018090610b77565b80601f01602080910402602001604051908101604052809291908181526020018280546101ac90610b77565b80156101f95780601f106101ce576101008083540402835291602001916101f9565b820191906000526020600020905b8154815290600101906020018083116101dc57829003601f168201915b5050505050935082805461020c90610b77565b80601f016020809104026020016040519081016040528092919081815260200182805461023890610b77565b80156102855780601f1061025a57610100808354040283529160200191610285565b820191906000526020600020905b81548152906001019060200180831161026857829003601f168201915b505050505092509450945094509450509193509193565b6040518060a001604052806001548152602001838152602001828152602001600060038111156102cf576102ce6107a0565b5b81526020013373ffffffffffffffffffffffffffffffffffffffff1681525060008060015481526020019081526020016000206000820151816000015560208201518160010190816103219190610d54565b5060408201518160020190816103379190610d54565b5060608201518160030160006101000a81548160ff02191690836003811115610363576103626107a0565b5b021790555060808201518160030160016101000a81548173ffffffffffffffffffffffffffffffffffffffff021916908373ffffffffffffffffffffffffffffffffffffffff1602179055509050507f6c2a584b3d703f6052727cdfa09d068ea155d5e23f8ae17b6737660658d57a01600154836000336040516103ea9493929190610e26565b60405180910390a16001600081548092919061040590610ea1565b91905055505050565b600060205280600052604060002060009150905080600001549080600101805461043790610b77565b80601f016020809104026020016040519081016040528092919081815260200182805461046390610b77565b80156104b05780601f10610485576101008083540402835291602001916104b0565b820191906000526020600020905b81548152906001019060200180831161049357829003601f168201915b5050505050908060020180546104c590610b77565b80601f01602080910402602001604051908101604052809291908181526020018280546104f190610b77565b801561053e5780601f106105135761010080835404028352916020019161053e565b820191906000526020600020905b81548152906001019060200180831161052157829003601f168201915b5050505050908060030160009054906101000a900460ff16908060030160019054906101000a900473ffffffffffffffffffffffffffffffffffffffff16905085565b600080600084815260200190815260200160002090503373ffffffffffffffffffffffffffffffffffffffff168160030160019054906101000a900473ffffffffffffffffffffffffffffffffffffffff1673ffffffffffffffffffffffffffffffffffffffff1614610629576040517f08c379a000000000000000000000000000000000000000000000000000000000815260040161062090610f5b565b60405180910390fd5b818160030160006101000a81548160ff021916908360038111156106505761064f6107a0565b5b02179055507f9a4f521400d1b2f610a5c4845f80b4d79e3ec73d18e977ac9e0b0e6e741ec85f8383604051610686929190610f7b565b60405180910390a1505050565b60015481565b6000604051905090565b600080fd5b600080fd5b6000819050919050565b6106c0816106ad565b81146106cb57600080fd5b50565b6000813590506106dd816106b7565b92915050565b6000602082840312156106f9576106f86106a3565b5b6000610707848285016106ce565b91505092915050565b600081519050919050565b600082825260208201905092915050565b60005b8381101561074a57808201518184015260208101905061072f565b60008484015250505050565b6000601f19601f8301169050919050565b600061077282610710565b61077c818561071b565b935061078c81856020860161072c565b61079581610756565b840191505092915050565b7f4e487b7100000000000000000000000000000000000000000000000000000000600052602160045260246000fd5b600481106107e0576107df6107a0565b5b50565b60008190506107f1826107cf565b919050565b6000610801826107e3565b9050919050565b610811816107f6565b82525050565b600073ffffffffffffffffffffffffffffffffffffffff82169050919050565b600061084282610817565b9050919050565b61085281610837565b82525050565b600060808201905081810360008301526108728187610767565b905081810360208301526108868186610767565b90506108956040830185610808565b6108a26060830184610849565b95945050505050565b600080fd5b600080fd5b7f4e487b7100000000000000000000000000000000000000000000000000000000600052604160045260246000fd5b6108ed82610756565b810181811067ffffffffffffffff8211171561090c5761090b6108b5565b5b80604052505050565b600061091f610699565b905061092b82826108e4565b919050565b600067ffffffffffffffff82111561094b5761094a6108b5565b5b61095482610756565b9050602081019050919050565b82818337600083830152505050565b600061098361097e84610930565b610915565b90508281526020810184848401111561099f5761099e6108b0565b5b6109aa848285610961565b509392505050565b600082601f8301126109c7576109c66108ab565b5b81356109d7848260208601610970565b91505092915050565b600080604083850312156109f7576109f66106a3565b5b600083013567ffffffffffffffff811115610a1557610a146106a8565b5b610a21858286016109b2565b925050602083013567ffffffffffffffff811115610a4257610a416106a8565b5b610a4e858286016109b2565b9150509250929050565b610a61816106ad565b82525050565b600060a082019050610a7c6000830188610a58565b8181036020830152610a8e8187610767565b90508181036040830152610aa28186610767565b9050610ab16060830185610808565b610abe6080830184610849565b9695505050505050565b60048110610ad557600080fd5b50565b600081359050610ae781610ac8565b92915050565b60008060408385031215610b0457610b036106a3565b5b6000610b12858286016106ce565b9250506020610b2385828601610ad8565b9150509250929050565b6000602082019050610b426000830184610a58565b92915050565b7f4e487b7100000000000000000000000000000000000000000000000000000000600052602260045260246000fd5b60006002820490506001821680610b8f57607f821691505b602082108103610ba257610ba1610b48565b5b50919050565b60008190508160005260206000209050919050565b60006020601f8301049050919050565b600082821b905092915050565b600060088302610c0a7fffffffffffffffffffffffffffffffffffffffffffffffffffffffffffffffff82610bcd565b610c148683610bcd565b95508019841693508086168417925050509392505050565b6000819050919050565b6000610c51610c4c610c47846106ad565b610c2c565b6106ad565b9050919050565b6000819050919050565b610c6b83610c36565b610c7f610c7782610c58565b848454610bda565b825550505050565b600090565b610c94610c87565b610c9f818484610c62565b505050565b5b81811015610cc357610cb8600082610c8c565b600181019050610ca5565b5050565b601f821115610d0857610cd981610ba8565b610ce284610bbd565b81016020851015610cf1578190505b610d05610cfd85610bbd565b830182610ca4565b50505b505050565b600082821c905092915050565b6000610d2b60001984600802610d0d565b1980831691505092915050565b6000610d448383610d1a565b9150826002028217905092915050565b610d5d82610710565b67ffffffffffffffff811115610d7657610d756108b5565b5b610d808254610b77565b610d8b828285610cc7565b600060209050601f831160018114610dbe5760008415610dac578287015190505b610db68582610d38565b865550610e1e565b601f198416610dcc86610ba8565b60005b82811015610df457848901518255600182019150602085019450602081019050610dcf565b86831015610e115784890151610e0d601f891682610d1a565b8355505b6001600288020188555050505b505050505050565b6000608082019050610e3b6000830187610a58565b8181036020830152610e4d8186610767565b9050610e5c6040830185610808565b610e696060830184610849565b95945050505050565b7f4e487b7100000000000000000000000000000000000000000000000000000000600052601160045260246000fd5b6000610eac826106ad565b91507fffffffffffffffffffffffffffffffffffffffffffffffffffffffffffffffff8203610ede57610edd610e72565b5b600182019050919050565b7f4f6e6c79207468652063726561746f722063616e20757064617465207468652060008201527f7461736b20737461747573000000000000000000000000000000000000000000602082015250565b6000610f45602b8361071b565b9150610f5082610ee9565b604082019050919050565b60006020820190508181036000830152610f7481610f38565b9050919050565b6000604082019050610f906000830185610a58565b610f9d6020830184610808565b939250505056fea2646970667358221220f8f95cb57fc232451eb1f8d39c8a571e2de735218bf2535c283d8fad94c0325164736f6c634300081b0033",
  "linkReferences": {},
  "deployedLinkReferences": {}
}